:100000000C946C000C94A10A0C94A10A0C94A10A03
:100010000C94A10A0C94A10A0C94A10A0C94A10AB4
:100020000C94A10A0C94A10A0C94A10A0C94A10AA4
:100030000C94A10A0C94A10A0C94A10A0C94A10A94
:100040000C94A10A0C94A10A0C94A10A0C94A10A84
:100050000C94A10A0C94A10A0C94A10A0C94A10A74
:100060000C94A10A0C94A10A0C94A10A0C94A10A64
:100070000C94A10A0C94A10A0C94A10A0C94A10A54
:100080000C94A10A0C94A10A0C94A10A0C94A10A44
:100090000C94A10A0C94A10A0C94A10A0C94A10A34
:1000A0000C94A10A0C94A10A0C94A10A0C94A10A24
:1000B0000C94A10A0100010680010601A40015505C
:1000C00001A401A88001A801AA0015EE01AA01B2AD
:1000D0008001B201B60015F011241FBECFEFD8E0A9
:1000E000DEBFCDBFE4EBF0E040E017C0B591A591D5
:1000F00035912591059107FD0CC095918591EF01F2
:10010000F92FE82F05900D92A217B307D9F7FE013A
:1001100004C01D92A217B307E1F7E83DF40731F7D9
:0C0120000E94340A0C94740AF894FFCF7B
:10012C00AEE0B0E0ECE9F0E00C94B7094C016B01E7
:10013C001A8219828FEF9FEF9C838B831E821D8204
:10014C0058874F833A872987A12CB12CD6016D9003
:10015C007C90F301EA0DFB1D808181110FC0D6014B
:10016C00ED93FC938081853209F0D3C13F01BFEF41
:10017C006B1A7B0AF6017182608219C0853279F3A1
:10018C00B401082E000C990B0E9412074FEFA41A11
:10019C00B40ADCCF8C32ACF08D32F9F489819A81BF
:1001AC0081609A8389833196D601ED93FC93D601B5
:1001BC00ED91FC9180818B3269F789819A81846001
:1001CC00F0CF803221F489819A818860EACF833222
:1001DC0051F489819A818061E4CF803321F4898143
:1001EC009A818260DECFB701C6010E94C0089E834F
:1001FC008D8397FF0BC029813A81B1E02B273A837D
:10020C0029839195819591099E838D8389819A810A
:10021C0080FF03C08D7F9A838983D601ED91FC9179
:10022C00119780818E3249F43196ED93FC93B7018E
:10023C00C6010E94C0089C838B83C6010E945B0987
:10024C00582ED601ED91FC918081082E000C990B53
:10025C000E94990A893609F443C084F4833609F460
:10026C0002C134F4853209F427C18136E1F030C182
:10027C008436B1F188360CF4D9C02AC1803709F420
:10028C009AC03CF48E3609F4BCC08F3609F461C0B8
:10029C001FC1853709F440C0883709F476C083370D
:1002AC0009F016C1F3C0652D70E0A701CE010B96C5
:1002BC000E940000892B09F426C1D601ED91FC9116
:1002CC001197CF0101968D939C932081AE01455FD0
:1002DC005F4FBE016F5F7F4FC4010E94000010C1D1
:1002EC00652D70E0970141E050E0CE010B960E9425
:1002FC008A05892B09F407C1F60180819181019649
:10030C0091838083AE01455F5F4FBE016F5F7F4F6E
:10031C00C4010E941805F4C0652D70E0970140E0FF
:10032C0050E0CE010B960E948A05892B09F4EBC094
:10033C00D6018D919C91119701968D939C93AE0152
:10034C00455F5F4FBE016F5F7F4FC4010E945E0728
:10035C00D7C0652D70E0970140E050E0CE010B96C0
:10036C000E948A05892B09F4CEC0F6018081918107
:10037C00019691838083AE01455F5F4FBE016F5F35
:10038C007F4FC4010E94B906BBC0652D70E0970178
:10039C0040E050E0CE010B960E948A05892B09F4AF
:1003AC00B2C0D601ED91FC911197CF0101968D93BE
:1003BC009C9320811CC0970140E050E060EF70E0FE
:1003CC00CE010B960E948A05892B09F49CC0F6017C
:1003DC00808191810196918380838B859C85892B6B
:1003EC0029F420E030E04EE951E084C028E7AE016A
:1003FC00455F5F4FBE016F5F7F4FC4010E94B20328
:10040C007FC0A501400F511F652D70E09701CE01F3
:10041C000B960E940000892B09F475C0D6018D91B2
:10042C009C91119701968D939C9373C0652D70E0F0
:10043C00A701CE010B960E940000892B09F463C022
:10044C00D601ED91FC911197CF0101968D939C9360
:10045C002081AE01455F5F4FBE016F5F7F4FC401CE
:10046C000E9400004DC0B0E85B124DC0F6018081C7
:10047C009181019691838083D701ED91FC91119725
:10048C00CF0102968D939C93808120C0B0E85B12C3
:10049C003AC0F60180819181019691838083D701C6
:1004AC00ED91FC911197CF0102968D939C93408115
:1004BC00518120E030E01EC0B0E85B1224C0F60190
:1004CC00208131812F5F3F4F318320838B870DC07B
:1004DC0085E28B87D6016D927C921A8219821E82DC
:1004EC001D828FEF9FEF9C838B8321E030E0AE0168
:1004FC00455F5F4FBE016F5F7F4FC4010E94EE08E6
:10050C008A0D9B1D07C0F601808191810196918314
:0C051C008083C5012E96EFE00C94D309FB
:10052800CF93DF93CDB7DEB7C357D1090FB6F89491
:10053800DEBF0FBECDBFCE0186589F4F9F878E87E7
:10054800EA968EAD9FADEA979A8389831C821B82B7
:100558001E821D82F1C089819A81FC0180818532C9
:1005680009F0E5C089819A8101969A8389838981F6
:100578009A81FC018081882F90E08436910549F0AA
:100588008337910509F449C08336910509F4A1C060
:10059800CEC01E821D8280E090E00E94EB098F830E
:1005A8008F818033B8F08F818A33A0F48D819E814A
:1005B800880F991F9C01220F331F220F331F280F0A
:1005C800391F8F81882F90E0C097820F931F9E83D9
:1005D8008D830BC08F818D3049F480E090E00E94BC
:1005E800EB098F838F818A3019F0D5CF000001C0C5
:1005F80000008E859F859C012E5F3F4F3F872E8789
:10060800FC018081918199878887888599852D81CA
:100618003E81FC01318320838AC01C821B8280E0DA
:1006280090E00E94EB098F838F818D3091F480E0F8
:1006380090E00E94EB098F838F818A3051F49E01EC
:10064800205F3F4F8B819C81820F931FFC0110829A
:1006580022C08F818A3051F49E01205F3F4F8B81E9
:100668009C81820F931FFC01108215C08B819C8195
:1006780083369105A4F68B819C819C012F5F3F4FA7
:100688003C832B839E01205F3F4F820F931F2F8156
:10069800FC012083C4CF9E01205F3F4F8B819C814A
:1006A800820F931FFC0110828E859F859C012E5F0F
:1006B8003F4F3F872E87FC01808191819B878A87E6
:1006C8009E01205F3F4F8A859B85B9010E94910A50
:1006D8002EC080E090E00E94EB098F838F818D30DF
:1006E800A9F08F818A3091F08E859F859C012E5FBD
:1006F8003F4F3F872E87FC01808191819D878C87A2
:100708008C859D852F81FC0120830FC08F818D30C2
:1007180049F480E090E00E94EB098F838F818A3052
:10072800C1F605C08F818A3009F0D3CF00008981D6
:100738009A8101969A83898389819A81FC018081B3
:10074800882309F008CF0000CD58DF4F0FB6F89482
:0C075800DEBF0FBECDBFDF91CF91089532
:10076400AFE0B0E0E8EBF3E00C94B4091C016B01DA
:100774005A8349832B83FB018281938184809580F2
:1007840000811181A680B78097FD02C00D7F02C051
:1007940081E090E0E981FA81408051806280738039
:1007A4009801207133273D832C83740104FF08C012
:1007B400411451046104710419F032E0E31AF108A0
:1007C400F801E870FF27FF83EE8303FF03C0F1E025
:1007D400EF1AF108F6010084F185E02D3197FF87C7
:1007E400EE87EA0DFB1D10829C012E193F09398703
:1007F4002887C801827099279B878A87EB818E2F6F
:10080400EE0F990B9C01215431093D872C872E85CD
:100814003F852230310530F48C819D81892B09F08C
:1008240042C05CC0411451046104710461F18E85BD
:100834009F8501979F878E87C2018F7099278A3081
:10084400910514F4C09602C0895A9F4FEC85FD852A
:100854007A9748F49C012062215631092A313105E6
:1008640010F40E947F0AEE85FF85EA0DFB1D80834C
:10087400F1E0EF1AF10884E0769467945794479472
:100884008A95D1F7C4CF888599858E0D9F1D18163A
:1008940019066CF21E141F040CF0BECFEA85FB850A
:1008A400EF2B29F6B9CFE981FA8180819181A28168
:1008B400B381892B8A2B8B2B89F0EE85FF85EA0D7A
:1008C400FB1D31972B8120838E859F8502979F87FF
:1008D4008E87FC01EA0DFB1D80E38083EE81FF819E
:1008E400EF2B59F02E853F85215031093F872E8704
:1008F400F901EA0DFB1D80E28083F60140855185F4
:10090400415051092E853F85421B530BB9016A0D95
:100914007B1D9401C1010E941D089C01F10180818D
:10092400918190FF06C0F60182819381821793071B
:0C0934000CF4C9012F96E2E10C94D009EC
:10094000A2E0B0E0E6EAF4E00C94BE098C0180E09D
:1009500090E00115110509F460C0892BD1F0023037
:10096000110558F00E3F8FEF180748F08CE090E02B
:10097000909305018093040128C002E010E0C801B3
:100980000E940000009709F04FC092E0E92EF12C80
:1009900004C080E0E82E80E0F82E8091AC019091B8
:1009A000AD012091AE013091AF01821B930B670125
:1009B000C00ED11E80179107F0F4DA82C982CE01F1
:1009C00001960E945608009719F480E090E02CC030
:1009D0002091AC013091AD018217930721F09093E3
:1009E000AF018093AE0129813A81820F931F9093CA
:1009F000AD018093AC01E091AE01F091AF01CF0168
:100A0000E114F10419F0029611830083CE0EDF1E6B
:100A1000D092AF01C092AE0107C0009709F0ADCFF0
:100A20007C0101E010E0B9CF2296E8E00C94DA09ED
:100A3000A2E0B0E0EEE1F5E00C94B4093C016B01FA
:100A4000FB0122813381A480B580808191819A83CA
:100A5000898386809780FA0120803180428053808C
:100A6000B201A10157FE07C044275527BA01421918
:100A700053096409750937FD03C08D7F9A83898303
:100A8000950157FC05C0898182FD02C083FF02C029
:100A900021503109CE0101967C010AE010E0C60127
:100AA0000E94F20557FC03C0298122FF0AC001976A
:100AB000F401E80FF91F57FC02C02BE209C02DE238
:100AC00007C023FF06C00197F401E80FF91F20E2D9
:100AD000208309811A81F6014085518541505109D1
:100AE000481B590BB401680F791F9501C3010E947F
:100AF0001D089C01F3018081918190FF06C0F601E1
:100B000082819381821793070CF4C9012296E2E156
:040B10000C94D00968
:100B1400CF93DF93DC01F90168387105F1F05CF4DF
:100B24006138710561F164387105A1F160387105AE
:100B340009F051C02FC0603C710509F441C0603F09
:100B44007105F1F1603A710509F045C0C081D181A8
:100B5400CE0102969183808325C0C081D181CE01CC
:100B6400029691838083452B39F04881042E000C32
:100B7400550B660B770B1CC0488150E029C0C0811F
:100B8400D181CE01049691838083488159816A8101
:100B94007B810EC0C081D181CE0102969183808376
:100BA400452BA1F048815981052E000C660B770B6B
:100BB4004D935D936D937C93139781E090E00DC00A
:100BC400C081D181CE01029691838083488159816D
:100BD40060E070E0EDCF80E090E0DF91CF91089588
:100BE400A0E0B0E0E8EFF5E00C94B609DC012801E0
:100BF4001696AD90BC901797F7018081918112965B
:100C0400ED91FC9113971896CD91DC91199721974A
:100C1400F7FF02C0E1E0F0E0CA0DDB1D18826901B4
:100C2400A1E0B0E08F01021B130B4C01F2E08F2214
:100C34009924052C000C66087708CE018A199B09B3
:100C4400CA15DB0519F1411551056105710589F0D6
:100C5400CB01BA01A30192010E941809CA01A62F6F
:100C6400B72F605D6A9341E0C41AD108A901BC01A1
:100C7400E4CF98012C0D3D1D121613064CF31C14E1
:100C84001D0434F48114910419F702C080E090E04B
:100C9400AB2B31F4F701208131812F7E3183208306
:0A0CA400CDB7DEB7E0E10C94D209F1
:100CAE00CF93DF9300D0CDB7DEB786E091E0892FEA
:100CBE008F9386E091E08F930E94040A0F900F901D
:100CCE00CE0101969F938F9388E291E0892F8F93A7
:100CDE0088E291E08F930E9494020F900F900F90F4
:100CEE000F9089819A81892BE1F489819A81292F2C
:100CFE002F938F938DE291E0892F8F938DE291E068
:100D0E008F930E94040A0F900F900F900F9085E220
:100D1E0090E025E230E0F90120812F7DFC01208357
:100D2E001BC089819A81292F2F938F9387E491E09D
:100D3E00892F8F9387E491E08F930E94040A0F907E
:100D4E000F900F900F9085E290E025E230E0F901D0
:100D5E0020812062FC01208300000F900F90DF9114
:040D6E00CF91089584
:100D7200A2E0B0E0EFEBF6E00C94B8094C016B0195
:100D8200FB012281338164807580808191819A8305
:100D92008983A680B78037FD03C08D7F9A838983BC
:100DA200FA014081518162817381CE0101967C01F9
:100DB20008E010E09301C6010E94F205298124FF98
:100DC20006C00197F501E80FF91F20E3208329816E
:100DD20023FF06C00197F501E80FF91F20E22083E7
:100DE20009811A81F6014085518541505109481BFC
:100DF200590BB501680F791F9301C4010E941D08A8
:100E02009C01F4018081918190FF06C0F6018281EC
:100E12009381821793070CF4C9012296EEE00C9499
:020E2200D409F1
:100E24000F931F93CF93DF93DB01109719F48FEF88
:100E34009FEF3DC02D913C91119730FF25C0169630
:100E44004D915C91179714962D913C9115974217EB
:100E5400530778F41296ED91FC91139780831296C0
:100E64002D913C9113972F5F3F4F13963C932E93F4
:100E7400129716962D913C9117972F5F3F4F179617
:100E84003C932E93169713C01C96ED91FC911D97DD
:100E9400309769F2EB01092F182F0995892B39F640
:100EA4008E819F8101969F838E83812F902FDF9166
:080EB400CF911F910F910895E9
:100EBC00A2E0B0E0E4E6F7E00C94B8095C016B0149
:100ECC00FB012281338184809580808191819A837A
:100EDC0089836680778037FD03C08D7F9A838983F1
:100EEC00FA014081518162817381CE0101967C01AE
:100EFC000AE010E09401C6010E94F20509811A81F2
:100F0C00F6014085518541505109481B590BB301DD
:100F1C00680F791F9401C5010E941D089C01F50101
:100F2C008081918190FF06C0F601828193818217A6
:0E0F3C0093070CF4C9012296EEE00C94D40940
:100F4A00CF93DF9300D0CDB7DEB79A83898385EC40
:100F5A0090E029813A81232F330F330BFC01208340
:100F6A0084EC90E02981FC01208381EC90E028E167
:100F7A00FC01208382EC90E026E0FC01208382ECD5
:100F8A0090E022EC30E0F90120812860FC01208306
:100F9A008AE399E00E94570A8BEE99E00E94480A78
:100FAA006BEE79E08AE399E00E948D0800000F90C9
:080FBA000F90DF91CF91089523
:100FC200A2E8B0E0E7EEF7E00C94BA095C014A014E
:100FD200CF57DF4F79836883C158D040C12CD12CC1
:100FE200CF57DF4FE881F981C158D04080818823F3
:100FF200E9F07401860120E830E0AE014F5F5F4FF7
:10100200BE016F577F4FC5010E9496008C0D9D1D3A
:101012008C159D054CF48FE490E09093050180932C
:1010220004018FEF9FEF03C06C01DACFC601CE57E8
:08103200DF4FECE00C94D6093D
:10103A00A0E0B0E0E3E2F8E00C94BA096C015B01CD
:10104A007A01E901480181E08822992400FD03C060
:10105A004217530750F0A701B501C6010E947B0948
:10106A00EC16FD0610F0C70117C08E010E191F09F4
:10107A000115110541F0B60180E290E00E941207C5
:10108A0001501109F5CF8114910429F4A701B50182
:10109A00C6010E947B09CE01CDB7DEB7ECE00C9405
:0210AA00D60965
:1010AC00FC01408151818091B0019091B101892B5B
:1010BC0041F48091B4019091B5019093B10180936A
:1010CC00B0018091B2019091B301009719F48DB7E2
:1010DC009EB780972091B0013091B1012817390744
:1010EC0048F08CE090E0909305018093040180E03F
:1010FC0090E00895821B930B8417950790F3420F91
:0E110C00531F5093B1014093B001C9010895E3
:10111A000F931F93CF93DF93009731F461157105F5
:10112A0019F480E090E022C08B01EC0160E170E0EC
:10113A0081E090E00E949809FC01892B91F380E0FC
:10114A0092E0918380830115110521F482E092E0F7
:10115A0091838083209729F480819181846091838F
:10116A00808317870687D587C487CF01DF91CF9100
:06117A001F910F91089582
:10118000DC01ED91FC91119780818A3221F080E0A1
:1011900090E03AE00EC03196ED93FC93DB01ED91C7
:1011A000FC911197CF0102968D939C938081918140
:1011B0000895ED91FC911197208120532A3068F415
:1011C000389FA001399F500D1124CA01820F911D33
:0C11D00031961196FC93EE93ECCF08953D
:1011DC00A0E0B0E0E4EFF8E00C94BC097C01FB016A
:1011EC00EA01C901A280B380C480D580008111813D
:1011FC00209711F4C7E9D1E0009719F4CE010E94B1
:10120C00660AB7FC04C0A816B90608F4C501960115
:10121C00AC01BE01C7010E941D08CDB7DEB7EAE0E4
:04122C000C94D8093D
:10123000A1E21A2EAA1BBB1BFD010DC0AA1FBB1FDA
:10124000EE1FFF1FA217B307E407F50720F0A21B4C
:10125000B30BE40BF50B661F771F881F991F1A94B9
:1012600069F760957095809590959B01AC01BD01E3
:04127000CF0108950D
:10127400CF93DF9300D00F92CDB7DEB789837B8302
:101284006A83000080EC90E0FC018081882F90E06C
:1012940080729927892BB1F386EC90E02981FC01B7
:1012A400208380E090E00F900F900F90DF91CF911A
:0212B40008959B
:1012B600CF93DF93EC0190E0E92FF0E0EE0FFF1FF4
:1012C600EF59FE4F8081811102C081810EC0A88135
:1012D600B9812C91821305C091811196B983A88397
:1012E60001C09F5F9B3040F3892FDF91CF91089516
:1012F600A0E0B0E0E1E8F9E00C94BE096C01EB0176
:101306008A017B01E40EF51ECE15DF0541F08991B9
:10131600B601082E000C990B0E941207F5CFC801E2
:0A132600CDB7DEB7E8E00C94DA0959
:101330000F931F93CF93DF93869F8001879F100D9C
:10134000969F100D1124C8010E94A004EC01009783
:1013500029F0A80160E070E00E94880ACE01DF91C8
:08136000CF911F910F91089538
:101368002F923F924F925F926F927F928F929F92AD
:10137800AF92BF92CF92DF92EF92FF920F931F939B
:10138800CF93DF93CDB7DEB7CA1BDB0B0FB6F8944C
:08139800DEBF0FBECDBF0994BA
:1013A0002A88398848885F846E847D848C849B84F5
:1013B000AA84B984C884DF80EE80FD800C811B8103
:1013C000AA81B981CE0FD11D0FB6F894DEBF0FBE32
:0613D000CDBFED01089500
:1013D600CF93DF9300D0CDB7DEB79A838983000021
:1013E60080EC90E0FC0180818823D4F786EC90E0C5
:1013F600FC018081882F90E00F900F90DF91CF91B4
:02140600089547
:10140800A0E0B0E0EAE0FAE00C94C409AE014B5F5A
:101418005F4FFA0161917191AF01E091A801F091DC
:10142800A901808191810E941C0AE2E00C94E009E4
:10143800A2E0B0E0E2E2FAE00C94C2098C015A831F
:101448004983AE014F5F5F4F0E94E107F801208199
:1014580024FF02C08FEF9FEF2296E4E00C94DE0990
:10146800CF93DF93CDB7DEB787E690E00E94A5075C
:1014780084E290E024E230E0F90120812062FC015E
:0814880020830E945706FDCFEE
:10149000E7E7F1E0F0930101E0930001F093A5018B
:0E14A000E093A4019787868715861486089529
:1014AE00E7E8F1E0F0930301E0930201F093AB0162
:0E14BE00E093AA011786168695878487089505
:1014CC00FC01AF014F5F5F4F2081222311F0FA0125
:0C14DC00F8CF9F01281B390BC9010895AF
:1014E800EC010E94A60A0E94A50ACE010E94A70A42
:0614F800CE010E94A30AD0
:1014FE009C01215631092A31310510F48F75992737
:02150E0008953E
:10151000FC01480F591FE417F50711F06193FBCF49
:0215200008952C
:10152200FC01DB012D91BD0121932111FACF089518
:101532009C01215431092A31310508F48062089551
:041542000C94000005
:041546000E9494006B
:02154A00089502
:02154C00089500
:02154E000895FE
:101550005343414E46544553545F4E554D203A3AFD
:1015600020456E7465722061206E756D6265723AF9
:10157000200025640D0A004F4646202D2D2054687A
:1015800065206E756D6265722069732025640D0A91
:10159000004F4E202D2D20546865206E756D6265BC
:0B15A000722069732025640D0A0A0008
:1015AB0068076C094C836A9074A07AC000806888C5
:0615BB0000846C82008137
:1015C1002500A8010000000000000000000000004C
:1015D1000300000000000000000000000000000007
:0715E100286E756C6C2900F7
:0615E800286E696C290069
:0215EE00AA0150
:0215F0000000F9
:0215F200B60140
:00000001FF
