:100000000C946C000C9468040C9468040C946804C0
:100010000C9468040C9468040C9468040C946804B0
:100020000C9468040C9468040C9468040C946804A0
:100030000C9468040C9468040C9468040C94680490
:100040000C9468040C9468040C9468040C94680480
:100050000C9468040C9468040C9468040C94680470
:100060000C9468040C9468040C9468040C94680460
:100070000C9468040C9468040C9468040C94680450
:100080000C9468040C9468040C9468040C94680440
:100090000C9468040C9468040C9468040C94680430
:1000A0000C9468040C9468040C9468040C94680420
:1000B0000C9468040100010680010601340008DE8A
:1000C00001340138800138013A00090C013A01423B
:1000D000800142014600090E11241FBECFEFD8E077
:1000E000DEBFCDBFE4EBF0E040E017C0B591A591D5
:1000F00035912591059107FD0CC095918591EF01F2
:10010000F92FE82F05900D92A217B307D9F7FE013A
:1001100004C01D92A217B307E1F7E83DF40731F7D9
:0C0120000E94DC030C941F04F894FFCF35
:10012C00CF93DF93CDB7DEB72E970FB6F894DEBF23
:10013C000FBECDBF86E291E00E942A0480E090E0E1
:10014C00AAEFB3E489839A83AB83BC8320E030E0CD
:10015C004AE755E469817A818B819C810E94610414
:10016C00DC01CB018D839E83AF83B88720E030E028
:10017C0040E85FE36D817E818F8198850E945704F2
:10018C0088232CF481E090E09A8789873FC020E097
:10019C003FEF4FE757E46D817E818F8198850E94F8
:1001AC005C0418164CF520E030E040E251E4698123
:1001BC007A818B819C810E946104DC01CB01BC01A2
:1001CC00CD010E94DA02DC01CB019A8789870FC02E
:1001DC0080E991E09C878B878B859C850197F1F753
:1001EC009C878B8789859A8501979A8789878985CA
:1001FC009A85892B69F714C06D817E818F819885D2
:10020C000E94DA02DC01CB019A87898789859A855D
:10021C009E878D878D859E850197F1F79E878D87AB
:10022C0000002E960FB6F894DEBF0FBECDBFDF9147
:04023C00CF910895C1
:10024000A2E0B0E0E6E2F1E00C9496038C0180E0DD
:1002500090E00115110509F460C0892BD1F002303E
:10026000110558F00E3F8FEF180748F08CE090E032
:10027000909305018093040128C002E010E0C801BA
:100280000E940000009709F04FC092E0E92EF12C87
:1002900004C080E0E82E80E0F82E80913C0190912F
:1002A0003D0120913E0130913F01821B930B67017C
:1002B000C00ED11E80179107F0F4DA82C982CE01F8
:1002C00001960E943E02009719F480E090E02CC055
:1002D00020913C0130913D018217930721F09093CA
:1002E0003F0180933E0129813A81820F931F9093B1
:1002F0003D0180933C01E0913E01F0913F01CF012F
:10030000E114F10419F0029611830083CE0EDF1E72
:10031000D0923F01C0923E0107C0009709F0ADCFD7
:100320007C0101E010E0B9CF2296E8E00C94B20322
:100330000FC00E94430438F00E944A0420F0952325
:1003400011F00C9451040C94650411240C943D0498
:100350000E942D0370F3959FC1F3950F50E0551F38
:10036000629FF001729FBB27F00DB11D639FAA270A
:10037000F00DB11DAA1F649F6627B00DA11D661F59
:10038000829F2227B00DA11D621F739FB00DA11D7A
:10039000621F839FA00D611D221F749F3327A00D34
:1003A000611D231F849F600D211D822F762F6A2FD0
:1003B00011249F5750409AF0F1F088234AF0EE0F35
:1003C000FF1FBB1F661F771F881F91505040A9F762
:1003D0009E3F510580F00C9451040C943D045F3F06
:1003E000E4F3983ED4F3869577956795B795F7959E
:1003F000E7959F5FC1F7FE2B880F911D9695879516
:0404000097F90895CB
:10040400CF93DF9300D0CDB7DEB79A83898385EC91
:1004140090E029813A81232F330F330BFC01208391
:1004240084EC90E02981FC01208381EC90E028E1B8
:10043400FC01208382EC90E026E0FC01208382EC26
:1004440090E022EC30E0F90120812860FC01208357
:100454008FE493E00E94100483EC93E00E94010473
:1004640063EC73E08FE493E00E94750200000F9048
:080474000F90DF91CF91089574
:10047C00FC01408151818091400190914101892B77
:10048C0041F48091440190914501909341018093F6
:10049C0040018091420190914301009719F48DB76E
:1004AC009EB7809720914001309141012817390760
:1004BC0048F08CE090E0909305018093040180E07B
:1004CC0090E00895821B930B8417950790F3420FCD
:0E04DC00531F5093410140934001C901089500
:1004EA000F931F93CF93DF93009731F46115710532
:1004FA0019F480E090E022C08B01EC0160E170E029
:10050A0081E090E00E947003FC01892B91F380E066
:10051A0092E0918380830115110521F482E092E033
:10052A0091838083209729F48081918184609183CB
:10053A00808317870687D587C487CF01DF91CF913C
:06054A001F910F910895BE
:100550000F931F93CF93DF938C010F5F1F4FFC010D
:1005600080816115710519F48FEF9FEF1EC0FB01AB
:1005700024853585232BC1F3EB01EC85FD85BE0178
:10058000882339F00995892B79F7F80181918F013A
:10059000F4CF8AE0099521E030E0892B11F420E0C6
:1005A00030E088279927821B930BDF91CF911F9111
:0405B0000F9108950A
:1005B4000E94350388F09F5798F0B92F9927B751B7
:1005C400B0F0E1F0660F771F881F991F1AF0BA95F3
:1005D400C9F714C0B13091F00E943C04B1E0089511
:1005E4000C943C04672F782F8827B85F39F0B93F03
:1005F400CCF3869577956795B395D9F73EF49095A6
:0E0604008095709561957F4F8F4F9F4F0895A1
:10061200990F0008550FAA0BE0E8FEEF1616170611
:10062200E807F907C0F012161306E407F50798F079
:10063200621B730B840B950B39F40A2661F0232B92
:10064200242B252B21F408950A2609F4A140A6950E
:080652008FEF811D811D089549
:10065A0057FD9058440F551F59F05F3F71F0479569
:10066A00880F97FB991F61F09F3F79F0879508954E
:10067A00121613061406551FF2CF4695F1DF08C06D
:10068A00161617061806991FF1CF8695710561058A
:04069A000894089523
:10069E00CF93DF9300D00F92CDB7DEB789837B83E4
:1006AE006A83000080EC90E0FC018081882F90E04E
:1006BE0080729927892BB1F386EC90E02981FC0199
:1006CE00208380E090E00F900F900F90DF91CF91FC
:0206DE0008957D
:1006E0000F931F93CF93DF93869F8001879F100DF9
:1006F000969F100D1124C8010E942001EC01009763
:1007000029F0A80160E070E00E943304CE01DF917F
:08071000CF911F910F91089594
:100718002F923F924F925F926F927F928F929F9209
:10072800AF92BF92CF92DF92EF92FF920F931F93F7
:10073800CF93DF93CDB7DEB7CA1BDB0B0FB6F894A8
:08074800DEBF0FBECDBF099416
:100750002A88398848885F846E847D848C849B8451
:10076000AA84B984C884DF80EE80FD800C811B815F
:10077000AA81B981CE0FD11D0FB6F894DEBF0FBE8E
:06078000CDBFED0108955C
:10078600CF93DF9300D0CDB7DEB79A83898300007D
:1007960080EC90E0FC0180818823D4F786EC90E021
:1007A600FC018081882F90E00F900F90DF91CF9110
:0207B6000895A4
:1007B800CF93DF93CDB7DEB787E690E00E940202C1
:1007C80084E290E024E230E0F90120812062FC011B
:0807D80020830E949600FDCF72
:1007E000092E0394000C11F4882352F0BB0F40F43F
:1007F000BF2B11F460FF04C06F5F7F4F8F4F9F4F7F
:02080000089559
:10080200E6E0F1E0F0930101E0930001F09335019D
:0E081200E09334019787868715861486089533
:10082000E6E1F1E0F0930301E0930201F0933B0174
:0E083000E0933A01178616869587848708950F
:10083E00EC010E946D040E946C04CE010E946E04B5
:06084E00CE010E946A04C5
:10085400E0913801F0913901608171810E94A80210
:020864000895F5
:10086600FC01480F591FE417F50711F06193FBCF00
:020876000895E3
:0E087800E894BB2766277727CB0197F90895F0
:0E08860000240A94161617061806090608958F
:0E08940000240A941216130614060506089591
:0C08A20097F99F6780E870E060E008951F
:0A08AE000E94090308F481E0089598
:0A08B8000E94090308F48FEF089571
:0808C2000E9498010C94F00360
:0608CA009FEF80EC089591
:0408D0000C94000084
:0408D4000E949400EA
:0208D800089581
:0208DA0008957F
:0208DC0008957D
:1008DE0025003801000000000000000000000000AC
:1008EE0003000000000000000000000000000000F7
:0E08FE0048656C6C6F20576F726C64210D00A2
:02090C003A01AE
:02090E000000E7
:0209100046019E
:00000001FF
