:100000000C9469000C944E060C944E060C944E060B
:100010000C944E060C944E060C944E060C944E0610
:100020000C944E060C944E060C944E060C944E0600
:100030000C944E060C944E060C944E060C944E06F0
:100040000C944E060C944E060C944E060C944E06E0
:100050000C944E060C944E060C944E060C944E06D0
:100060000C944E060C944E060C944E060C944E06C0
:100070000C944E060C944E060C944E060C944E06B0
:100080000C944E060C944E060C944E060C944E06A0
:100090000C944E060C944E060C944E060C944E0690
:1000A0000C944E060C944E060C944E060C944E0680
:1000B0000C944E06010001068001060191000CAA75
:1000C000019101958001950197000D3501970199E6
:1000D000800011241FBECFEFD8E0DEBFCDBFE4EB20
:1000E000F0E040E017C0B591A591359125910591BB
:1000F00007FD0CC095918591EF01F92FE82F059030
:100100000D92A217B307D9F7FE0104C01D92A217E2
:10011000B307E1F7E13DF40731F70E94F3050C94D2
:060120003306F894FFCF46
:10012600AEE0B0E0E9E9F0E00C9476054C016B0135
:100136001A8219828FEF9FEF9C838B831E821D820A
:1001460058874F833A872987A12CB12CD6016D9009
:100156007C90F301EA0DFB1D808181110FC0D60151
:10016600ED93FC938081853209F0D3C13F01BFEF47
:100176006B1A7B0AF6017182608219C0853279F3A7
:10018600B401082E000C990B0E9483034FEFA41AAA
:10019600B40ADCCF8C32ACF08D32F9F489819A81C5
:1001A60081609A8389833196D601ED93FC93D601BB
:1001B600ED91FC9180818B3269F789819A81846007
:1001C600F0CF803221F489819A818860EACF833228
:1001D60051F489819A818061E4CF803321F4898149
:1001E6009A818260DECFB701C6010E94BD049E835C
:1001F6008D8397FF0BC029813A81B1E02B273A8383
:1002060029839195819591099E838D8389819A8110
:1002160080FF03C08D7F9A838983D601ED91FC917F
:10022600119780818E3249F43196ED93FC93B70194
:10023600C6010E94BD049C838B83C6010E943605BD
:10024600582ED601ED91FC918081082E000C990B59
:100256000E944606893609F443C084F4833609F4BD
:1002660002C134F4853209F427C18136E1F030C188
:100276008436B1F188360CF4D9C02AC1803709F426
:100286009AC03CF48E3609F4BCC08F3609F461C0BE
:100296001FC1853709F440C0883709F476C0833713
:1002A60009F016C1F3C0652D70E0A701CE010B96CB
:1002B6000E940000892B09F426C1D601ED91FC911C
:1002C6001197CF0101968D939C932081AE01455FD6
:1002D6005F4FBE016F5F7F4FC4010E94000010C1D7
:1002E600652D70E0970141E050E0CE010B960E942B
:1002F6000000892B09F407C1F601808191810196DE
:1003060091838083AE01455F5F4FBE016F5F7F4F74
:10031600C4010E940000F4C0652D70E0970140E022
:1003260050E0CE010B960E940000892B09F4EBC029
:10033600D6018D919C91119701968D939C93AE0158
:10034600455F5F4FBE016F5F7F4FC4010E94000093
:10035600D7C0652D70E0970140E050E0CE010B96C6
:100366000E940000892B09F4CEC0F601808191819C
:10037600019691838083AE01455F5F4FBE016F5F3B
:100386007F4FC4010E940000BBC0652D70E097013D
:1003960040E050E0CE010B960E940000892B09F444
:1003A600B2C0D601ED91FC911197CF0101968D93C4
:1003B6009C9320811CC0970140E050E060EF70E004
:1003C600CE010B960E940000892B09F49CC0F60111
:1003D600808191810196918380838B859C85892B71
:1003E60029F420E030E04BE851E084C028E7AE0174
:1003F600455F5F4FBE016F5F7F4FC4010E940000E3
:100406007FC0A501400F511F652D70E09701CE01F9
:100416000B960E940000892B09F475C0D6018D91B8
:100426009C91119701968D939C9373C0652D70E0F6
:10043600A701CE010B960E940000892B09F463C028
:10044600D601ED91FC911197CF0101968D939C9366
:100456002081AE01455F5F4FBE016F5F7F4FC401D4
:100466000E9400004DC0B0E85B124DC0F6018081CD
:100476009181019691838083D701ED91FC9111972B
:10048600CF0102968D939C93808120C0B0E85B12C9
:100496003AC0F60180819181019691838083D701CC
:1004A600ED91FC911197CF0102968D939C9340811B
:1004B600518120E030E01EC0B0E85B1224C0F60196
:1004C600208131812F5F3F4F318320838B870DC081
:1004D60085E28B87D6016D927C921A8219821E82E2
:1004E6001D828FEF9FEF9C838B8321E030E0AE016E
:1004F600455F5F4FBE016F5F7F4FC4010E94EB04F3
:100506008A0D9B1D07C0F60180819181019691831A
:0C0516008083C5012E96EFE00C94920546
:10052200CF93DF93CDB7DEB7C357D1090FB6F89497
:10053200DEBF0FBECDBFCE0186589F4F9F878E87ED
:10054200EA968EAD9FADEA979A8389831C821B82BD
:100552001E821D82C5C089819A81FC0180818532FB
:1005620009F0B9C089819A8101969A838983898128
:100572009A81FC018081882F90E08436910549F0B0
:100582008337910509F43FC08336910509F488C089
:10059200A2C01E821D8280E090E00E94AA058F8385
:1005A2008F818033B8F08F818A33A0F48D819E8150
:1005B200880F991F9C01220F331F220F331F280F10
:1005C200391F8F81882F90E0C097820F931F9E83DF
:1005D2008D8303C08F818A3009F0DDCF00008E85C4
:1005E2009F859C012E5F3F4F3F872E87FC018081B4
:1005F200918199878887888599852D813E81FC0123
:100602003183208368C01C821B8280E090E00E94BC
:10061200AA058F838F818A3041F59E01205F3F4F6B
:100622008B819C81820F931FFC01108200009E012E
:10063200205F3F4F8B819C81820F931FFC011082B0
:100642008E859F859C012E5F3F4F3F872E87FC0141
:10065200808191819B878A879E01205F3F4F8A8597
:100662009B85B9010E943E0636C08B819C818336F0
:1006720091055CF68F818D3041F28F818A3029F2AB
:100682008B819C819C012F5F3F4F3C832B839E017A
:10069200205F3F4F820F931F2F81FC012083B5CF34
:1006A20080E090E00E94AA058F838F818A3091F0CA
:1006B2008E859F859C012E5F3F4F3F872E87FC01D1
:1006C200808191819D878C878C859D852F81FC01FE
:1006D2002083E6CF000089819A8101969A838983DB
:1006E20089819A81FC018081882309F034CF00003E
:1006F200CD58DF4F0FB6F894DEBF0FBECDBFDF91EE
:04070200CF910895F6
:100706000F931F93CF93DF93DB01109719F48FEFAD
:100716009FEF3DC02D913C91119730FF25C0169655
:100726004D915C91179714962D913C911597421710
:10073600530778F41296ED91FC91139780831296E5
:100746002D913C9113972F5F3F4F13963C932E9319
:10075600129716962D913C9117972F5F3F4F17963C
:100766003C932E93169713C01C96ED91FC911D9702
:10077600309769F2EB01092F182F0995892B39F665
:100786008E819F8101969F838E83812F902FDF918B
:08079600CF911F910F9108950E
:10079E00CF93DF93CDB7DEB7C456D1090FB6F89419
:1007AE00DEBF0FBECDBF86E091E0892F8F9386E02E
:1007BE0091E08F930E94C3050F900F90CE0101968A
:1007CE009F938F9388E291E0892F8F9388E291E037
:1007DE008F930E9491020F900F900F900F90CE0169
:1007EE0001969F938F938DE291E0892F8F938DE2E7
:1007FE0091E08F930E94C3050F900F900F900F9072
:10080E000000CC59DF4F0FB6F894DEBF0FBECDBF40
:06081E00DF91CF91089567
:10082400A2E8B0E0E8E1F4E00C9479055C014A0147
:10083400CF57DF4F79836883C158D040C12CD12C66
:10084400CF57DF4FE881F981C158D0408081882398
:10085400E9F07401860120E830E0AE014F5F5F4F9C
:10086400BE016F577F4FC5010E9493008C0D9D1DE3
:100874008C159D054CF48FE490E0909305018093D2
:1008840004018FEF9FEF03C06C01DACFC601CE578E
:08089400DF4FECE00C94950528
:10089C00A0E0B0E0E4E5F4E00C9479056C015B01B8
:1008AC007A01E901480181E08822992400FD03C006
:1008BC004217530750F0A701B501C6010E94560517
:1008CC00EC16FD0610F0C70117C08E010E191F099A
:1008DC000115110541F0B60180E290E00E948303FE
:1008EC0001501109F5CF8114910429F4A701B50128
:1008FC00C6010E945605CE01CDB7DEB7ECE00C94D4
:02090C0095054F
:10090E00CF93DF9300D0CDB7DEB79A83898385EC82
:10091E0090E029813A81232F330F330BFC01208382
:10092E0084EC90E02981FC01208381EC90E028E1A9
:10093E00FC01208382EC90E026E0FC01208382EC17
:10094E0090E022EC30E0F90120812860FC01208348
:10095E0085E195E00E9416068AEA95E00E94070658
:0C096E0000000F900F90DF91CF910895D2
:10097A00DC01ED91FC91119780818A3221F080E0AF
:10098A0090E03AE00EC03196ED93FC93DB01ED91D5
:10099A00FC911197CF0102968D939C93808191814E
:1009AA000895ED91FC911197208120532A3068F423
:1009BA00389FA001399F500D1124CA01820F911D41
:0C09CA0031961196FC93EE93ECCF08954B
:1009D600A0E0B0E0E1EFF4E00C947B057C01FB01C4
:1009E600EA01C901A280B380C480D580008111814B
:1009F600209711F4C4E8D1E0009719F4CE010E94C3
:100A06002506B7FC04C0A816B90608F4C501960168
:100A1600AC01BE01C7010E944E04CDB7DEB7EAE0C5
:040A26000C94970590
:100A2A00CF93DF9300D00F92CDB7DEB789837B8354
:100A3A006A83000080EC90E0FC018081882F90E0BE
:100A4A0080729927892BB1F386EC90E02981FC0109
:100A5A00208380E090E00F900F900F90DF91CF916C
:020A6A000895ED
:100A6C00CF93DF93EC0190E0E92FF0E0EE0FFF1F46
:100A7C00E25BFE4F8081811102C081810EC0A88192
:100A8C00B9812C91821305C091811196B983A883E9
:100A9C0001C09F5F9B3040F3892FDF91CF91089568
:100AAC00A0E0B0E0ECE5F5E00C947D056C01EB0109
:100ABC008A017B01E40EF51ECE15DF0541F089910C
:100ACC00B601082E000C990B0E948303F5CFC801C8
:0A0ADC00CDB7DEB7E8E00C949905F1
:100AE6002F923F924F925F926F927F928F929F9238
:100AF600AF92BF92CF92DF92EF92FF920F931F9326
:100B0600CF93DF93CDB7DEB7CA1BDB0B0FB6F894D6
:080B1600DEBF0FBECDBF099444
:100B1E002A88398848885F846E847D848C849B847F
:100B2E00AA84B984C884DF80EE80FD800C811B818D
:100B3E00AA81B981CE0FD11D0FB6F894DEBF0FBEBC
:060B4E00CDBFED0108958A
:100B5400CF93DF9300D0CDB7DEB79A8389830000AB
:100B640080EC90E0FC0180818823D4F786EC90E04F
:100B7400FC018081882F90E00F900F90DF91CF913E
:020B84000895D2
:100B8600A0E0B0E0E9ECF5E00C948305AE014B5F24
:100B96005F4FFA0161917191AF01E0919501F0917A
:100BA6009601808191810E94DB05E2E00C949F050D
:100BB600A2E0B0E0E1EEF5E00C9481058C015A83E9
:100BC6004983AE014F5F5F4F0E941204F8012081F6
:100BD60024FF02C08FEF9FEF2296E4E00C949D0560
:100BE600CF93DF93CDB7DEB787E690E00E94870408
:100BF60084E290E024E230E0F90120812062FC01E9
:080C060020830E94CF03FDCF03
:100C0E00E4E6F1E0F0930101E0930001F09392012C
:0E0C1E00E093910197878687158614860895C6
:100C2C00E4E7F1E0F0930301E0930201F093980103
:0E0C3C00E093970117861686958784870895A2
:100C4A00FC01AF014F5F5F4F2081222311F0FA01AF
:0C0C5A00F8CF9F01281B390BC901089539
:100C6600EC010E9453060E945206CE010E945406D1
:060C7600CE010E945006B1
:100C7C00FC01DB012D91BD0121932111FACF0895C7
:100C8C009C01215431092A31310508F48062089500
:040C9C000C940000B4
:040CA0000E9491001D
:020CA4000895B1
:020CA6000895AF
:020CA8000895AD
:100CAA005343414E46544553545F535452203A3AA3
:100CBA0020456E746572206120737472696E673A9A
:100CCA00200025730D0A0054686520737472696EDA
:100CDA006720796F7520656E746572656420697323
:080CEA003A2025730D0A0A00EF
:100CF20068076C094C836A9074A07AC00080688887
:060D020000846C820081F8
:100D08002500950100000000000000000000000020
:100D180003000000000000000000000000000000C8
:070D2800286E756C6C2900B8
:060D2F00286E696C29002A
:020D3500970124
:00000001FF
