:100000000C9466000C947F020C947F020C947F0287
:100010000C947F020C947F020C947F020C947F025C
:100020000C947F020C947F020C947F020C947F024C
:100030000C947F020C947F020C947F020C947F023C
:100040000C947F020C947F020C947F020C947F022C
:100050000C947F020C947F020C947F020C947F021C
:100060000C947F020C947F020C947F020C947F020C
:100070000C947F020C947F020C947F020C947F02FC
:100080000C947F020C947F020C947F020C947F02EC
:100090000C947F020C947F020C947F020C947F02DC
:1000A0000C947F020C947F020C947F020C947F02CC
:1000B0000C947F0201000106800106012600050C58
:1000C00001260132800132013600052C11241FBEA9
:1000D000CFEFD8E0DEBFCDBFE4EBF0E040E017C0EB
:1000E000B591A59135912591059107FD0CC095918C
:1000F0008591EF01F92FE82F05900D92A217B30714
:10010000D9F7FE0104C01D92A217B307E1F7EC3C3A
:10011000F40731F70E943B020C946B02F894FFCF76
:10012000A2E0B0E0E6E9F0E00C94F5018C0180E09B
:1001300090E00115110509F460C0892BD1F002305F
:10014000110558F00E3F8FEF180748F08CE090E053
:10015000909305018093040128C002E010E0C801DB
:100160000E940000009709F04FC092E0E92EF12CA8
:1001700004C080E0E82E80E0F82E80912C01909160
:100180002D0120912E0130912F01821B930B6701CD
:10019000C00ED11E80179107F0F4DA82C982CE0119
:1001A00001960E944401009719F480E090E02CC071
:1001B00020912C0130912D018217930721F090930B
:1001C0002F0180932E0129813A81820F931F9093F2
:1001D0002D0180932C01E0912E01F0912F01CF0190
:1001E000E114F10419F0029611830083CE0EDF1E94
:1001F000D0922F01C0922E0107C0009709F0ADCF19
:100200007C0101E010E0B9CF2296E8E00C941102E5
:10021000CF93DF9300D0CDB7DEB79A83898385EC87
:1002200090E029813A81232F330F330BFC01208387
:1002300084EC90E02981FC01208381EC90E028E1AE
:10024000FC01208382EC90E026E0FC01208382EC1C
:1002500090E022EC30E0F90120812860FC0120834D
:100260008EEA91E00E945C0282E292E00E944D02DE
:1002700062E272E08EEA91E00E947B0100000F9042
:080280000F90DF91CF9108956A
:10028800FC01408151818091300190913101892B8D
:1002980041F480913401909135019093310180931C
:1002A80030018091320190913301009719F48DB794
:1002B8009EB7809720913001309131012817390776
:1002C80048F08CE090E0909305018093040180E071
:1002D80090E00895821B930B8417950790F3420FC3
:0E02E800531F5093310140933001C901089516
:1002F6000F931F93CF93DF93009731F46115710528
:1003060019F480E090E022C08B01EC0160E170E01E
:1003160081E090E00E94CF01FC01892B91F380E0FF
:1003260092E0918380830115110521F482E092E029
:1003360091838083209729F48081918184609183C1
:10034600808317870687D587C487CF01DF91CF9132
:060356001F910F910895B4
:10035C00CF93DF9300D00F92CDB7DEB789837B8329
:10036C006A83000080EC90E0FC018081882F90E093
:10037C0080729927892BB1F386EC90E02981FC01DE
:10038C00208380E090E00F900F900F90DF91CF9141
:02039C000895C2
:10039E000F931F93CF93DF93869F8001879F100D3E
:1003AE00969F100D1124C8010E949000EC01009739
:1003BE0029F0A80160E070E00E947602CE01DF9184
:0803CE00CF911F910F910895DA
:1003D6002F923F924F925F926F927F928F929F924F
:1003E600AF92BF92CF92DF92EF92FF920F931F933D
:1003F600CF93DF93CDB7DEB7CA1BDB0B0FB6F894EE
:08040600DEBF0FBECDBF09945B
:10040E002A88398848885F846E847D848C849B8496
:10041E00AA84B984C884DF80EE80FD800C811B81A4
:10042E00AA81B981CE0FD11D0FB6F894DEBF0FBED3
:06043E00CDBFED010895A1
:10044400CF93DF9300D0CDB7DEB79A8389830000C2
:1004540080EC90E0FC0180818823D4F786EC90E066
:10046400FC018081882F90E00F900F90DF91CF9155
:020474000895E9
:10047600CF93DF93CDB7DEB787E690E00E94080101
:1004860084E290E024E230E0F90120812062FC0160
:040496002083FFCFF1
:10049A00E6E0F1E0F0930101E0930001F093270117
:0E04AA00E093260197878687158614860895AD
:1004B800E6E1F1E0F0930301E0930201F0932B01F0
:0E04C800E0932A01178616869587848708958B
:1004D600EC010E9484020E948302CE010E948502E2
:0604E600CE010E9481021C
:1004EC00FC01480F591FE417F50711F06193FBCF7E
:0204FC00089561
:0404FE000C9400005A
:040502000E948E00C5
:02050600089556
:02050800089554
:02050A00089552
:10050C0025002A010000000000000000000000008F
:10051C0003000000000000000000000000000000CC
:02052C000000CD
:02052E00360194
:00000001FF
